{
  "transactions": [
    {
      "hash": "0x6fb0e094a61fe0bae577ede1fc1ea12c16e151422730742de057d398af2b9dbc",
      "transactionType": "CREATE",
      "contractName": "ChangeOwner",
      "contractAddress": "0x088078434507e984d2098e6303fb19250443c653",
      "function": null,
      "arguments": null,
      "transaction": {
        "from": "0xa86ea1be0a43ea977dd7489c7c91247b1a7bc50b",
        "to": null,
        "gas": "0x23675",
        "value": "0x0",
        "input": "0x6080604052348015600f57600080fd5b5061010d8061001f6000396000f3fe6080604052348015600f57600080fd5b506004361060465760003560e01c80633beb26c414604b5780638da5cb5b14606d578063baf2f86814609b578063fb5343f31460ad575b600080fd5b606b605636600460bf565b50600280546001600160a01b03191633179055565b005b600254607f906001600160a01b031681565b6040516001600160a01b03909116815260200160405180910390f35b600154607f906001600160a01b031681565b600054607f906001600160a01b031681565b60006020828403121560d057600080fd5b503591905056fea264697066735822122073e2730d0a0a8337dfc1dd6470f9eb33e93f8c1f800ec08d503f89cc2eda16f464736f6c63430008190033",
        "nonce": "0x50",
        "chainId": "0xaa36a7",
        "accessList": null,
        "type": null
      },
      "additionalContracts": [],
      "isFixedGasLimit": false
    },
    {
      "hash": "0xec33036f7556ef6e254ba893e5d65244fa11f3c342eb47bdf0726115144f498f",
      "transactionType": "CALL",
      "contractName": null,
      "contractAddress": "0xda0de4010a53aef225f6408cfcb6b23632b8225c",
      "function": "setFirstTime(uint256)",
      "arguments": [
        "48536897916990845000183816418599656705625409107"
      ],
      "transaction": {
        "from": "0xa86ea1be0a43ea977dd7489c7c91247b1a7bc50b",
        "to": "0xda0de4010a53aef225f6408cfcb6b23632b8225c",
        "gas": "0xa1d9",
        "value": "0x0",
        "input": "0xf1e02620000000000000000000000000088078434507e984d2098e6303fb19250443c653",
        "nonce": "0x51",
        "chainId": "0xaa36a7",
        "accessList": null,
        "type": null
      },
      "additionalContracts": [],
      "isFixedGasLimit": false
    },
    {
      "hash": "0x52f6c07c6367b7921e72dff4e2ef99d84e9cca1cf8ba6855fd320161e0f1e0b5",
      "transactionType": "CALL",
      "contractName": null,
      "contractAddress": "0xda0de4010a53aef225f6408cfcb6b23632b8225c",
      "function": "setFirstTime(uint256)",
      "arguments": [
        "961577621215573058928371939469931281968000648459"
      ],
      "transaction": {
        "from": "0xa86ea1be0a43ea977dd7489c7c91247b1a7bc50b",
        "to": "0xda0de4010a53aef225f6408cfcb6b23632b8225c",
        "gas": "0xad5e",
        "value": "0x0",
        "input": "0xf1e02620000000000000000000000000a86ea1be0a43ea977dd7489c7c91247b1a7bc50b",
        "nonce": "0x52",
        "chainId": "0xaa36a7",
        "accessList": null,
        "type": null
      },
      "additionalContracts": [],
      "isFixedGasLimit": false
    }
  ],
  "receipts": [
    {
      "status": "0x1",
      "cumulativeGasUsed": "0x2a759c",
      "logs": [],
      "logsBloom": "0x00000000000000000000000000000000000000000000000000000000000000000000000000000000000000000000000000000000000000000000000000000000000000000000000000000000000000000000000000000000000000000000000000000000000000000000000000000000000000000000000000000000000000000000000000000000000000000000000000000000000000000000000000000000000000000000000000000000000000000000000000000000000000000000000000000000000000000000000000000000000000000000000000000000000000000000000000000000000000000000000000000000000000000000000000000000",
      "type": "0x2",
      "transactionHash": "0xec33036f7556ef6e254ba893e5d65244fa11f3c342eb47bdf0726115144f498f",
      "transactionIndex": "0x22",
      "blockHash": "0x059c61a5cbd6c66b929a1c3505552b593c3e01024f51d11863cab3053133cc4e",
      "blockNumber": "0x5956df",
      "gasUsed": "0x752e",
      "effectiveGasPrice": "0x75d28d6c5",
      "from": "0xa86ea1be0a43ea977dd7489c7c91247b1a7bc50b",
      "to": "0xda0de4010a53aef225f6408cfcb6b23632b8225c",
      "contractAddress": null
    },
    {
      "status": "0x1",
      "cumulativeGasUsed": "0x2af320",
      "logs": [],
      "logsBloom": "0x00000000000000000000000000000000000000000000000000000000000000000000000000000000000000000000000000000000000000000000000000000000000000000000000000000000000000000000000000000000000000000000000000000000000000000000000000000000000000000000000000000000000000000000000000000000000000000000000000000000000000000000000000000000000000000000000000000000000000000000000000000000000000000000000000000000000000000000000000000000000000000000000000000000000000000000000000000000000000000000000000000000000000000000000000000000",
      "type": "0x2",
      "transactionHash": "0x52f6c07c6367b7921e72dff4e2ef99d84e9cca1cf8ba6855fd320161e0f1e0b5",
      "transactionIndex": "0x23",
      "blockHash": "0x059c61a5cbd6c66b929a1c3505552b593c3e01024f51d11863cab3053133cc4e",
      "blockNumber": "0x5956df",
      "gasUsed": "0x7d84",
      "effectiveGasPrice": "0x75d28d6c5",
      "from": "0xa86ea1be0a43ea977dd7489c7c91247b1a7bc50b",
      "to": "0xda0de4010a53aef225f6408cfcb6b23632b8225c",
      "contractAddress": null
    }
  ],
  "libraries": [],
  "pending": [],
  "returns": {},
  "timestamp": 1715083213,
  "chain": 11155111,
  "commit": "5d69ebd"
}