{
  "transactions": [
    {
      "hash": "0x0377ca890823d113dae29bdc1e4a25d147b3fbe1cb508e42aedaf7acc5c8555b",
      "transactionType": "CREATE",
      "contractName": "ChangeOwner",
      "contractAddress": "0x991278e69fad506cc170ef0335f19d05e0acf93e",
      "function": null,
      "arguments": null,
      "transaction": {
        "from": "0xa86ea1be0a43ea977dd7489c7c91247b1a7bc50b",
        "to": null,
        "gas": "0x23675",
        "value": "0x0",
        "input": "0x6080604052348015600f57600080fd5b5061010d8061001f6000396000f3fe6080604052348015600f57600080fd5b506004361060465760003560e01c80633beb26c414604b5780638da5cb5b14606d578063baf2f86814609b578063fb5343f31460ad575b600080fd5b606b605636600460bf565b50600280546001600160a01b03191633179055565b005b600254607f906001600160a01b031681565b6040516001600160a01b03909116815260200160405180910390f35b600154607f906001600160a01b031681565b600054607f906001600160a01b031681565b60006020828403121560d057600080fd5b503591905056fea264697066735822122073e2730d0a0a8337dfc1dd6470f9eb33e93f8c1f800ec08d503f89cc2eda16f464736f6c63430008190033",
        "nonce": "0x53",
        "chainId": "0xaa36a7",
        "accessList": null,
        "type": null
      },
      "additionalContracts": [],
      "isFixedGasLimit": false
    },
    {
      "hash": "0xdcc22e67efee31a51fc6d25cf919f2e95360fe9bc7aa1617b6aa20fa4372978d",
      "transactionType": "CALL",
      "contractName": null,
      "contractAddress": "0xda0de4010a53aef225f6408cfcb6b23632b8225c",
      "function": "setFirstTime(uint256)",
      "arguments": [
        "873887533301124351365267975613855316931624368446"
      ],
      "transaction": {
        "from": "0xa86ea1be0a43ea977dd7489c7c91247b1a7bc50b",
        "to": "0xda0de4010a53aef225f6408cfcb6b23632b8225c",
        "gas": "0x9e42",
        "value": "0x0",
        "input": "0xf1e02620000000000000000000000000991278e69fad506cc170ef0335f19d05e0acf93e",
        "nonce": "0x54",
        "chainId": "0xaa36a7",
        "accessList": null,
        "type": null
      },
      "additionalContracts": [],
      "isFixedGasLimit": false
    },
    {
      "hash": "0x740b046e6d6a4eb02de1fc483d5b1c1b1becaf74ccf756fccd84b2a0fba4cd1a",
      "transactionType": "CALL",
      "contractName": null,
      "contractAddress": "0xda0de4010a53aef225f6408cfcb6b23632b8225c",
      "function": "setFirstTime(uint256)",
      "arguments": [
        "961577621215573058928371939469931281968000648459"
      ],
      "transaction": {
        "from": "0xa86ea1be0a43ea977dd7489c7c91247b1a7bc50b",
        "to": "0xda0de4010a53aef225f6408cfcb6b23632b8225c",
        "gas": "0x9e42",
        "value": "0x0",
        "input": "0xf1e02620000000000000000000000000a86ea1be0a43ea977dd7489c7c91247b1a7bc50b",
        "nonce": "0x55",
        "chainId": "0xaa36a7",
        "accessList": null,
        "type": null
      },
      "additionalContracts": [],
      "isFixedGasLimit": false
    }
  ],
  "receipts": [
    {
      "status": "0x1",
      "cumulativeGasUsed": "0xd9479c",
      "logs": [],
      "logsBloom": "0x00000000000000000000000000000000000000000000000000000000000000000000000000000000000000000000000000000000000000000000000000000000000000000000000000000000000000000000000000000000000000000000000000000000000000000000000000000000000000000000000000000000000000000000000000000000000000000000000000000000000000000000000000000000000000000000000000000000000000000000000000000000000000000000000000000000000000000000000000000000000000000000000000000000000000000000000000000000000000000000000000000000000000000000000000000000",
      "type": "0x2",
      "transactionHash": "0x0377ca890823d113dae29bdc1e4a25d147b3fbe1cb508e42aedaf7acc5c8555b",
      "transactionIndex": "0x42",
      "blockHash": "0xa73172a7ae255f61653c6c5dfacbe495738266543a7ef5ea257ce6d730e0b234",
      "blockNumber": "0x5956e2",
      "gasUsed": "0x1b3d1",
      "effectiveGasPrice": "0x73296322a",
      "from": "0xa86ea1be0a43ea977dd7489c7c91247b1a7bc50b",
      "to": null,
      "contractAddress": "0x991278e69fad506cc170ef0335f19d05e0acf93e"
    },
    {
      "status": "0x1",
      "cumulativeGasUsed": "0xd9ba30",
      "logs": [],
      "logsBloom": "0x00000000000000000000000000000000000000000000000000000000000000000000000000000000000000000000000000000000000000000000000000000000000000000000000000000000000000000000000000000000000000000000000000000000000000000000000000000000000000000000000000000000000000000000000000000000000000000000000000000000000000000000000000000000000000000000000000000000000000000000000000000000000000000000000000000000000000000000000000000000000000000000000000000000000000000000000000000000000000000000000000000000000000000000000000000000",
      "type": "0x2",
      "transactionHash": "0xdcc22e67efee31a51fc6d25cf919f2e95360fe9bc7aa1617b6aa20fa4372978d",
      "transactionIndex": "0x43",
      "blockHash": "0xa73172a7ae255f61653c6c5dfacbe495738266543a7ef5ea257ce6d730e0b234",
      "blockNumber": "0x5956e2",
      "gasUsed": "0x7294",
      "effectiveGasPrice": "0x73296322a",
      "from": "0xa86ea1be0a43ea977dd7489c7c91247b1a7bc50b",
      "to": "0xda0de4010a53aef225f6408cfcb6b23632b8225c",
      "contractAddress": null
    },
    {
      "status": "0x1",
      "cumulativeGasUsed": "0xda2cc4",
      "logs": [],
      "logsBloom": "0x00000000000000000000000000000000000000000000000000000000000000000000000000000000000000000000000000000000000000000000000000000000000000000000000000000000000000000000000000000000000000000000000000000000000000000000000000000000000000000000000000000000000000000000000000000000000000000000000000000000000000000000000000000000000000000000000000000000000000000000000000000000000000000000000000000000000000000000000000000000000000000000000000000000000000000000000000000000000000000000000000000000000000000000000000000000",
      "type": "0x2",
      "transactionHash": "0x740b046e6d6a4eb02de1fc483d5b1c1b1becaf74ccf756fccd84b2a0fba4cd1a",
      "transactionIndex": "0x44",
      "blockHash": "0xa73172a7ae255f61653c6c5dfacbe495738266543a7ef5ea257ce6d730e0b234",
      "blockNumber": "0x5956e2",
      "gasUsed": "0x7294",
      "effectiveGasPrice": "0x73296322a",
      "from": "0xa86ea1be0a43ea977dd7489c7c91247b1a7bc50b",
      "to": "0xda0de4010a53aef225f6408cfcb6b23632b8225c",
      "contractAddress": null
    }
  ],
  "libraries": [],
  "pending": [],
  "returns": {},
  "timestamp": 1715083251,
  "chain": 11155111,
  "commit": "5d69ebd"
}